{
  "contractName": "ERCTokenLinker",
  "abi": [
    {
      "constant": true,
      "inputs": [
        {
          "name": "",
          "type": "bytes32"
        }
      ],
      "name": "methodIDs",
      "outputs": [
        {
          "name": "",
          "type": "string"
        }
      ],
      "payable": false,
      "stateMutability": "view",
      "type": "function"
    },
    {
      "inputs": [
        {
          "name": "_tokenName",
          "type": "string"
        },
        {
          "name": "_contractAddress",
          "type": "address"
        },
        {
          "name": "_abi",
          "type": "string"
        },
        {
          "name": "_transferMethodID",
          "type": "string"
        },
        {
          "name": "_balanceOfMethodID",
          "type": "string"
        }
      ],
      "payable": false,
      "stateMutability": "nonpayable",
      "type": "constructor"
    }
  ],
  "bytecode": "0x6060604052341561000f57600080fd5b604051610407380380610407833981016040528080518201919060200180519060200190919080518201919060200180518201919060200180518201919050508460029080519060200190610065929190610191565b50836000806101000a81548173ffffffffffffffffffffffffffffffffffffffff021916908373ffffffffffffffffffffffffffffffffffffffff16021790555082600190805190602001906100bc929190610191565b50816003600060405180807f7472616e7366657200000000000000000000000000000000000000000000000081525060080190506040518091039020600019166000191681526020019081526020016000209080519060200190610121929190610191565b50806003600060405180807f62616c616e63654f66000000000000000000000000000000000000000000000081525060090190506040518091039020600019166000191681526020019081526020016000209080519060200190610186929190610191565b505050505050610236565b828054600181600116156101000203166002900490600052602060002090601f016020900481019282601f106101d257805160ff1916838001178555610200565b82800160010185558215610200579182015b828111156101ff5782518255916020019190600101906101e4565b5b50905061020d9190610211565b5090565b61023391905b8082111561022f576000816000905550600101610217565b5090565b90565b6101c2806102456000396000f300606060405260043610610041576000357c0100000000000000000000000000000000000000000000000000000000900463ffffffff168063b17127e014610046575b600080fd5b341561005157600080fd5b61006b6004808035600019169060200190919050506100e6565b6040518080602001828103825283818151815260200191508051906020019080838360005b838110156100ab578082015181840152602081019050610090565b50505050905090810190601f1680156100d85780820380516001836020036101000a031916815260200191505b509250505060405180910390f35b60036020528060005260406000206000915090508054600181600116156101000203166002900480601f01602080910402602001604051908101604052809291908181526020018280546001816001161561010002031660029004801561018e5780601f106101635761010080835404028352916020019161018e565b820191906000526020600020905b81548152906001019060200180831161017157829003601f168201915b5050505050815600a165627a7a7230582066e2fa230ebbb9f0045bd1f763b2193c167028db0f3cc06561872b824cf2fea10029",
  "source": "pragma solidity ^0.4.21;\n\n/*\n    ERC-TOKEN合约的映射合约\n    用于与主链合约建立连接关系\n*/\ncontract ERCTokenLinker {\n\n    /* 主链地址（合约）*/\n    address contractAddress;\n\n    /* 合约二进制接口 */\n    string contractABI;\n\n    /* token的名称 */\n    string tokenName;\n\n    /* 方法映射ID */\n    mapping (bytes32 => string) public methodIDs;\n\n    function ERCTokenLinker(string _tokenName,\n        address _contractAddress,\n        string _abi,\n        string _transferMethodID,\n        string _balanceOfMethodID) public {\n        tokenName = _tokenName;\n        contractAddress = _contractAddress;\n        contractABI = _abi;\n        methodIDs[keccak256(\"transfer\")] = _transferMethodID;\n        methodIDs[keccak256(\"balanceOf\")] = _balanceOfMethodID;\n    }\n}\n",
  "sourcePath": "/myspace/workplace/go-workspace/projects/src/github.com/blocktree/OpenWallet/box/contracts/ERCTokenLinker.sol",
  "compiler": {
    "name": "solc",
    "version": "0.4.21+commit.dfe3193c.Emscripten.clang"
  },
  "schemaVersion": "2.0.0",
  "updatedAt": "2018-04-09T08:12:32.926Z"
}